{
  "_format": "hh-sol-artifact-1",
  "contractName": "Ballot",
  "sourceName": "contracts/Ballot.sol",
  "abi": [
    {
      "inputs": [],
      "name": "MAX_LOOP",
      "outputs": [
        {
          "internalType": "uint256",
          "name": "",
          "type": "uint256"
        }
      ],
      "stateMutability": "view",
      "type": "function"
    },
    {
      "inputs": [
        {
          "internalType": "uint256",
          "name": "sessionId",
          "type": "uint256"
        },
        {
          "internalType": "uint256",
          "name": "candidateId",
          "type": "uint256"
        }
      ],
      "name": "addCandidate",
      "outputs": [],
      "stateMutability": "nonpayable",
      "type": "function"
    },
    {
      "inputs": [
        {
          "internalType": "address",
          "name": "chairperson",
          "type": "address"
        },
        {
          "internalType": "uint256",
          "name": "startTime",
          "type": "uint256"
        },
        {
          "internalType": "uint256",
          "name": "endTime",
          "type": "uint256"
        }
      ],
      "name": "createSession",
      "outputs": [],
      "stateMutability": "nonpayable",
      "type": "function"
    },
    {
      "inputs": [
        {
          "internalType": "uint256",
          "name": "sessionId",
          "type": "uint256"
        },
        {
          "internalType": "address",
          "name": "to",
          "type": "address"
        }
      ],
      "name": "delegate",
      "outputs": [],
      "stateMutability": "nonpayable",
      "type": "function"
    },
    {
      "inputs": [
        {
          "internalType": "uint256",
          "name": "sessionId",
          "type": "uint256"
        }
      ],
      "name": "getCandidatesFromSession",
      "outputs": [
        {
          "components": [
            {
              "internalType": "uint256",
              "name": "id",
              "type": "uint256"
            },
            {
              "internalType": "uint256",
              "name": "voteCount",
              "type": "uint256"
            }
          ],
          "internalType": "struct Ballot.Candidate[]",
          "name": "",
          "type": "tuple[]"
        }
      ],
      "stateMutability": "view",
      "type": "function"
    },
    {
      "inputs": [
        {
          "internalType": "uint256",
          "name": "sessionId",
          "type": "uint256"
        }
      ],
      "name": "getSessionStatus",
      "outputs": [
        {
          "internalType": "enum Ballot.Status",
          "name": "",
          "type": "uint8"
        }
      ],
      "stateMutability": "view",
      "type": "function"
    },
    {
      "inputs": [
        {
          "internalType": "uint256",
          "name": "sessionId",
          "type": "uint256"
        },
        {
          "internalType": "address",
          "name": "voterAddress",
          "type": "address"
        }
      ],
      "name": "getVoterFromSession",
      "outputs": [
        {
          "components": [
            {
              "internalType": "bool",
              "name": "isVoted",
              "type": "bool"
            },
            {
              "internalType": "address",
              "name": "delegated",
              "type": "address"
            },
            {
              "internalType": "uint256",
              "name": "weight",
              "type": "uint256"
            },
            {
              "internalType": "uint256",
              "name": "candidateId",
              "type": "uint256"
            }
          ],
          "internalType": "struct Ballot.Voter",
          "name": "",
          "type": "tuple"
        }
      ],
      "stateMutability": "view",
      "type": "function"
    },
    {
      "inputs": [
        {
          "internalType": "uint256",
          "name": "sessionId",
          "type": "uint256"
        },
        {
          "internalType": "address[]",
          "name": "voters",
          "type": "address[]"
        }
      ],
      "name": "giveRightToVote",
      "outputs": [],
      "stateMutability": "nonpayable",
      "type": "function"
    },
    {
      "inputs": [],
      "name": "lastSessionId",
      "outputs": [
        {
          "internalType": "uint256",
          "name": "",
          "type": "uint256"
        }
      ],
      "stateMutability": "view",
      "type": "function"
    },
    {
      "inputs": [
        {
          "internalType": "uint256",
          "name": "",
          "type": "uint256"
        }
      ],
      "name": "sessions",
      "outputs": [
        {
          "internalType": "address",
          "name": "chairperson",
          "type": "address"
        },
        {
          "internalType": "uint256",
          "name": "startTime",
          "type": "uint256"
        },
        {
          "internalType": "uint256",
          "name": "endTime",
          "type": "uint256"
        }
      ],
      "stateMutability": "view",
      "type": "function"
    },
    {
      "inputs": [
        {
          "internalType": "uint256",
          "name": "sessionId",
          "type": "uint256"
        },
        {
          "internalType": "uint256",
          "name": "candidateId",
          "type": "uint256"
        }
      ],
      "name": "vote",
      "outputs": [],
      "stateMutability": "nonpayable",
      "type": "function"
    },
    {
      "inputs": [
        {
          "internalType": "uint256",
          "name": "sessionId",
          "type": "uint256"
        }
      ],
      "name": "winningCandidate",
      "outputs": [
        {
          "components": [
            {
              "internalType": "uint256",
              "name": "id",
              "type": "uint256"
            },
            {
              "internalType": "uint256",
              "name": "voteCount",
              "type": "uint256"
            }
          ],
          "internalType": "struct Ballot.Candidate",
          "name": "",
          "type": "tuple"
        }
      ],
      "stateMutability": "view",
      "type": "function"
    }
  ],
  "bytecode": "0x608060405234801561001057600080fd5b50612292806100206000396000f3fe608060405234801561001057600080fd5b50600436106100b45760003560e01c806383c4b7a31161007157806383c4b7a31461018d578063887caf5f146101bf578063b384abef146101ef578063b82e1bb21461020b578063de68c3831461023b578063dff0a88014610257576100b4565b8063081ebe77146100b957806308bbb824146100d757806310346602146100f3578063399e44a214610123578063421653f71461015357806345939b8b14610171575b600080fd5b6100c1610273565b6040516100ce91906115a6565b60405180910390f35b6100f160048036038101906100ec919061165f565b610279565b005b61010d6004803603810190610108919061169f565b610776565b60405161011a91906117b9565b60405180910390f35b61013d6004803603810190610138919061165f565b610853565b60405161014a919061185a565b60405180910390f35b61015b61099a565b60405161016891906115a6565b60405180910390f35b61018b600480360381019061018691906119ce565b6109a0565b005b6101a760048036038101906101a2919061169f565b610ca2565b6040516101b693929190611a39565b60405180910390f35b6101d960048036038101906101d4919061169f565b610cec565b6040516101e69190611ae7565b60405180910390f35b61020960048036038101906102049190611b02565b610d90565b005b6102256004803603810190610220919061169f565b610f57565b6040516102329190611b71565b60405180910390f35b61025560048036038101906102509190611b8c565b6110a3565b005b610271600480360381019061026c9190611b02565b61123a565b005b61271081565b81600054811115801561028d575060008114155b6102cc576040517f08c379a00000000000000000000000000000000000000000000000000000000081526004016102c390611c3c565b60405180910390fd5b816000813b905060008161ffff161461031a576040517f08c379a000000000000000000000000000000000000000000000000000000000815260040161031190611ca8565b60405180910390fd5b600060016000878152602001908152602001600020905060008160040160003373ffffffffffffffffffffffffffffffffffffffff1673ffffffffffffffffffffffffffffffffffffffff16815260200190815260200160002090506000816001015414156103be576040517f08c379a00000000000000000000000000000000000000000000000000000000081526004016103b590611d14565b60405180910390fd5b8060000160009054906101000a900460ff1615610410576040517f08c379a000000000000000000000000000000000000000000000000000000000815260040161040790611d80565b60405180910390fd5b3373ffffffffffffffffffffffffffffffffffffffff168673ffffffffffffffffffffffffffffffffffffffff16141561047f576040517f08c379a000000000000000000000000000000000000000000000000000000000815260040161047690611dec565b60405180910390fd5b5b600073ffffffffffffffffffffffffffffffffffffffff168260040160008873ffffffffffffffffffffffffffffffffffffffff1673ffffffffffffffffffffffffffffffffffffffff16815260200190815260200160002060000160019054906101000a900473ffffffffffffffffffffffffffffffffffffffff1673ffffffffffffffffffffffffffffffffffffffff16146105f3578160040160008773ffffffffffffffffffffffffffffffffffffffff1673ffffffffffffffffffffffffffffffffffffffff16815260200190815260200160002060000160019054906101000a900473ffffffffffffffffffffffffffffffffffffffff1695503373ffffffffffffffffffffffffffffffffffffffff168673ffffffffffffffffffffffffffffffffffffffff1614156105ee576040517f08c379a00000000000000000000000000000000000000000000000000000000081526004016105e590611e58565b60405180910390fd5b610480565b60008260040160008873ffffffffffffffffffffffffffffffffffffffff1673ffffffffffffffffffffffffffffffffffffffff1681526020019081526020016000209050600181600101541015610680576040517f08c379a000000000000000000000000000000000000000000000000000000000815260040161067790611d14565b60405180910390fd5b60018260000160006101000a81548160ff021916908315150217905550868260000160016101000a81548173ffffffffffffffffffffffffffffffffffffffff021916908373ffffffffffffffffffffffffffffffffffffffff1602179055508060000160009054906101000a900460ff161561074d576000610707898360020154611484565b9050826001015484600301828154811061072457610723611e78565b5b906000526020600020906002020160010160008282546107449190611ed6565b92505081905550505b81600101548160010160008282546107659190611ed6565b925050819055505050505050505050565b606081600054811115801561078c575060008114155b6107cb576040517f08c379a00000000000000000000000000000000000000000000000000000000081526004016107c290611c3c565b60405180910390fd5b60016000848152602001908152602001600020600301805480602002602001604051908101604052809291908181526020016000905b8282101561084757838290600052602060002090600202016040518060400160405290816000820154815260200160018201548152505081526020019060010190610801565b50505050915050919050565b61085b611533565b82600054811115801561086f575060008114155b6108ae576040517f08c379a00000000000000000000000000000000000000000000000000000000081526004016108a590611c3c565b60405180910390fd5b6001600085815260200190815260200160002060040160008473ffffffffffffffffffffffffffffffffffffffff1673ffffffffffffffffffffffffffffffffffffffff1681526020019081526020016000206040518060800160405290816000820160009054906101000a900460ff161515151581526020016000820160019054906101000a900473ffffffffffffffffffffffffffffffffffffffff1673ffffffffffffffffffffffffffffffffffffffff1673ffffffffffffffffffffffffffffffffffffffff1681526020016001820154815260200160028201548152505091505092915050565b60005481565b8160005481111580156109b4575060008114155b6109f3576040517f08c379a00000000000000000000000000000000000000000000000000000000081526004016109ea90611c3c565b60405180910390fd5b826001600082815260200190815260200160002060000160009054906101000a900473ffffffffffffffffffffffffffffffffffffffff1673ffffffffffffffffffffffffffffffffffffffff163373ffffffffffffffffffffffffffffffffffffffff1614610a98576040517f08c379a0000000000000000000000000000000000000000000000000000000008152600401610a8f90611f78565b60405180910390fd5b8260005b8151811015610b2557600080838381518110610abb57610aba611e78565b5b60200260200101519050803b915060008261ffff1614610b10576040517f08c379a0000000000000000000000000000000000000000000000000000000008152600401610b0790611ca8565b60405180910390fd5b50508080610b1d90611f98565b915050610a9c565b5061271084511115610b6c576040517f08c379a0000000000000000000000000000000000000000000000000000000008152600401610b639061202d565b60405180910390fd5b600060016000878152602001908152602001600020905060005b85518161ffff161015610c99576000868261ffff1681518110610bac57610bab611e78565b5b6020026020010151905060008360040160008373ffffffffffffffffffffffffffffffffffffffff1673ffffffffffffffffffffffffffffffffffffffff1681526020019081526020016000206001015414610c3d576040517f08c379a0000000000000000000000000000000000000000000000000000000008152600401610c3490612099565b60405180910390fd5b60018360040160008373ffffffffffffffffffffffffffffffffffffffff1673ffffffffffffffffffffffffffffffffffffffff168152602001908152602001600020600101819055505080610c92906120c7565b9050610b86565b50505050505050565b60016020528060005260406000206000915090508060000160009054906101000a900473ffffffffffffffffffffffffffffffffffffffff16908060010154908060020154905083565b6000816000548111158015610d02575060008114155b610d41576040517f08c379a0000000000000000000000000000000000000000000000000000000008152600401610d3890611c3c565b60405180910390fd5b60006001600085815260200190815260200160002090508060010154421015610d6e576000925050610d8a565b8060020154421115610d84576002925050610d8a565b60019250505b50919050565b816000548111158015610da4575060008114155b610de3576040517f08c379a0000000000000000000000000000000000000000000000000000000008152600401610dda90611c3c565b60405180910390fd5b600060016000858152602001908152602001600020905060008160040160003373ffffffffffffffffffffffffffffffffffffffff1673ffffffffffffffffffffffffffffffffffffffff1681526020019081526020016000209050600081600101541415610e87576040517f08c379a0000000000000000000000000000000000000000000000000000000008152600401610e7e90611d14565b60405180910390fd5b8060000160009054906101000a900460ff1615610ed9576040517f08c379a0000000000000000000000000000000000000000000000000000000008152600401610ed090611d80565b60405180910390fd5b60018160000160006101000a81548160ff0219169083151502179055508381600201819055506000610f0b8686611484565b90508160010154836003018281548110610f2857610f27611e78565b5b90600052602060002090600202016001016000828254610f489190611ed6565b92505081905550505050505050565b610f5f611573565b816000548111158015610f73575060008114155b610fb2576040517f08c379a0000000000000000000000000000000000000000000000000000000008152600401610fa990611c3c565b60405180910390fd5b60006001600085815260200190815260200160002090506000805b82600301805490508161ffff16101561105557826003018281548110610ff657610ff5611e78565b5b906000526020600020906002020160010154836003018261ffff168154811061102257611021611e78565b5b9060005260206000209060020201600101541115611042578061ffff1691505b808061104d906120c7565b915050610fcd565b5081600301818154811061106c5761106b611e78565b5b9060005260206000209060020201604051806040016040529081600082015481526020016001820154815250509350505050919050565b826000813b905060008161ffff16146110f1576040517f08c379a00000000000000000000000000000000000000000000000000000000081526004016110e890611ca8565b60405180910390fd5b600073ffffffffffffffffffffffffffffffffffffffff168573ffffffffffffffffffffffffffffffffffffffff161415611161576040517f08c379a000000000000000000000000000000000000000000000000000000000815260040161115890611f78565b60405180910390fd5b428411801561116f57508383115b6111ae576040517f08c379a00000000000000000000000000000000000000000000000000000000081526004016111a59061213e565b60405180910390fd5b6000808154809291906111c090611f98565b9190505550600060016000805481526020019081526020016000209050858160000160006101000a81548173ffffffffffffffffffffffffffffffffffffffff021916908373ffffffffffffffffffffffffffffffffffffffff160217905550848160010181905550838160020181905550505050505050565b81600054811115801561124e575060008114155b61128d576040517f08c379a000000000000000000000000000000000000000000000000000000000815260040161128490611c3c565b60405180910390fd5b826001600082815260200190815260200160002060000160009054906101000a900473ffffffffffffffffffffffffffffffffffffffff1673ffffffffffffffffffffffffffffffffffffffff163373ffffffffffffffffffffffffffffffffffffffff1614611332576040517f08c379a000000000000000000000000000000000000000000000000000000000815260040161132990611f78565b60405180910390fd5b60008311611375576040517f08c379a000000000000000000000000000000000000000000000000000000000815260040161136c906121aa565b60405180910390fd5b600060016000868152602001908152602001600020905060005b81600301805490508161ffff1610156114235784826003018261ffff16815481106113bd576113bc611e78565b5b9060005260206000209060020201600001541415611410576040517f08c379a00000000000000000000000000000000000000000000000000000000081526004016114079061223c565b60405180910390fd5b808061141b906120c7565b91505061138f565b5080600301604051806040016040528086815260200160008152509080600181540180825580915050600190039060005260206000209060020201600090919091909150600082015181600001556020820151816001015550505050505050565b60008060016000858152602001908152602001600020905060005b81600301805490508110156115205760008260030182815481106114c6576114c5611e78565b5b9060005260206000209060020201604051806040016040529081600082015481526020016001820154815250509050848160000151141561150c5781935050505061152d565b50808061151890611f98565b91505061149f565b5080600301805490509150505b92915050565b6040518060800160405280600015158152602001600073ffffffffffffffffffffffffffffffffffffffff16815260200160008152602001600081525090565b604051806040016040528060008152602001600081525090565b6000819050919050565b6115a08161158d565b82525050565b60006020820190506115bb6000830184611597565b92915050565b6000604051905090565b600080fd5b600080fd5b6115de8161158d565b81146115e957600080fd5b50565b6000813590506115fb816115d5565b92915050565b600073ffffffffffffffffffffffffffffffffffffffff82169050919050565b600061162c82611601565b9050919050565b61163c81611621565b811461164757600080fd5b50565b60008135905061165981611633565b92915050565b60008060408385031215611676576116756115cb565b5b6000611684858286016115ec565b92505060206116958582860161164a565b9150509250929050565b6000602082840312156116b5576116b46115cb565b5b60006116c3848285016115ec565b91505092915050565b600081519050919050565b600082825260208201905092915050565b6000819050602082019050919050565b6117018161158d565b82525050565b60408201600082015161171d60008501826116f8565b50602082015161173060208501826116f8565b50505050565b60006117428383611707565b60408301905092915050565b6000602082019050919050565b6000611766826116cc565b61177081856116d7565b935061177b836116e8565b8060005b838110156117ac5781516117938882611736565b975061179e8361174e565b92505060018101905061177f565b5085935050505092915050565b600060208201905081810360008301526117d3818461175b565b905092915050565b60008115159050919050565b6117f0816117db565b82525050565b6117ff81611621565b82525050565b60808201600082015161181b60008501826117e7565b50602082015161182e60208501826117f6565b50604082015161184160408501826116f8565b50606082015161185460608501826116f8565b50505050565b600060808201905061186f6000830184611805565b92915050565b600080fd5b6000601f19601f8301169050919050565b7f4e487b7100000000000000000000000000000000000000000000000000000000600052604160045260246000fd5b6118c38261187a565b810181811067ffffffffffffffff821117156118e2576118e161188b565b5b80604052505050565b60006118f56115c1565b905061190182826118ba565b919050565b600067ffffffffffffffff8211156119215761192061188b565b5b602082029050602081019050919050565b600080fd5b600061194a61194584611906565b6118eb565b9050808382526020820190506020840283018581111561196d5761196c611932565b5b835b818110156119965780611982888261164a565b84526020840193505060208101905061196f565b5050509392505050565b600082601f8301126119b5576119b4611875565b5b81356119c5848260208601611937565b91505092915050565b600080604083850312156119e5576119e46115cb565b5b60006119f3858286016115ec565b925050602083013567ffffffffffffffff811115611a1457611a136115d0565b5b611a20858286016119a0565b9150509250929050565b611a3381611621565b82525050565b6000606082019050611a4e6000830186611a2a565b611a5b6020830185611597565b611a686040830184611597565b949350505050565b7f4e487b7100000000000000000000000000000000000000000000000000000000600052602160045260246000fd5b60038110611ab057611aaf611a70565b5b50565b6000819050611ac182611a9f565b919050565b6000611ad182611ab3565b9050919050565b611ae181611ac6565b82525050565b6000602082019050611afc6000830184611ad8565b92915050565b60008060408385031215611b1957611b186115cb565b5b6000611b27858286016115ec565b9250506020611b38858286016115ec565b9150509250929050565b604082016000820151611b5860008501826116f8565b506020820151611b6b60208501826116f8565b50505050565b6000604082019050611b866000830184611b42565b92915050565b600080600060608486031215611ba557611ba46115cb565b5b6000611bb38682870161164a565b9350506020611bc4868287016115ec565b9250506040611bd5868287016115ec565b9150509250925092565b600082825260208201905092915050565b7f496e76616c69642053657373696f6e2049440000000000000000000000000000600082015250565b6000611c26601283611bdf565b9150611c3182611bf0565b602082019050919050565b60006020820190508181036000830152611c5581611c19565b9050919050565b7f436f6e7472616374206164647265737320697320646973616c6c6f7765640000600082015250565b6000611c92601e83611bdf565b9150611c9d82611c5c565b602082019050919050565b60006020820190508181036000830152611cc181611c85565b9050919050565b7f4e6f20726967687420746f20766f746500000000000000000000000000000000600082015250565b6000611cfe601083611bdf565b9150611d0982611cc8565b602082019050919050565b60006020820190508181036000830152611d2d81611cf1565b9050919050565b7f416c726561647920766f74656400000000000000000000000000000000000000600082015250565b6000611d6a600d83611bdf565b9150611d7582611d34565b602082019050919050565b60006020820190508181036000830152611d9981611d5d565b9050919050565b7f4e6f7420616c6c6f7765642073656c662d64656c65676174696f6e0000000000600082015250565b6000611dd6601b83611bdf565b9150611de182611da0565b602082019050919050565b60006020820190508181036000830152611e0581611dc9565b9050919050565b7f466f756e64206c6f6f7020696e2064656c65676174696f6e0000000000000000600082015250565b6000611e42601883611bdf565b9150611e4d82611e0c565b602082019050919050565b60006020820190508181036000830152611e7181611e35565b9050919050565b7f4e487b7100000000000000000000000000000000000000000000000000000000600052603260045260246000fd5b7f4e487b7100000000000000000000000000000000000000000000000000000000600052601160045260246000fd5b6000611ee18261158d565b9150611eec8361158d565b9250827fffffffffffffffffffffffffffffffffffffffffffffffffffffffffffffffff03821115611f2157611f20611ea7565b5b828201905092915050565b7f496e76616c6964206368616972706572736f6e00000000000000000000000000600082015250565b6000611f62601383611bdf565b9150611f6d82611f2c565b602082019050919050565b60006020820190508181036000830152611f9181611f55565b9050919050565b6000611fa38261158d565b91507fffffffffffffffffffffffffffffffffffffffffffffffffffffffffffffffff821415611fd657611fd5611ea7565b5b600182019050919050565b7f566f7465727320636f756e7420697320746f6f20626967000000000000000000600082015250565b6000612017601783611bdf565b915061202282611fe1565b602082019050919050565b600060208201905081810360008301526120468161200a565b9050919050565b7f416c726561647920686164207269676874000000000000000000000000000000600082015250565b6000612083601183611bdf565b915061208e8261204d565b602082019050919050565b600060208201905081810360008301526120b281612076565b9050919050565b600061ffff82169050919050565b60006120d2826120b9565b915061ffff8214156120e7576120e6611ea7565b5b600182019050919050565b7f496e76616c69642073657373696f6e2074696d65000000000000000000000000600082015250565b6000612128601483611bdf565b9150612133826120f2565b602082019050919050565b600060208201905081810360008301526121578161211b565b9050919050565b7f496e76616c69642063616e646964617465206964000000000000000000000000600082015250565b6000612194601483611bdf565b915061219f8261215e565b602082019050919050565b600060208201905081810360008301526121c381612187565b9050919050565b7f546869732063616e6469646174652068617320616c726561647920657869737460008201527f6564000000000000000000000000000000000000000000000000000000000000602082015250565b6000612226602283611bdf565b9150612231826121ca565b604082019050919050565b6000602082019050818103600083015261225581612219565b905091905056fea2646970667358221220f9ab2085c4295f86bae962f4894b00de0ced79bab58633aa6dd343ef2e185f3764736f6c63430008090033",
  "linkReferences": {},
  "deployedLinkReferences": {}
}