{
  "_format": "hh-sol-artifact-1",
  "contractName": "Ballot",
  "sourceName": "contracts/Ballot.sol",
  "abi": [
    {
      "inputs": [],
      "name": "MAX_LOOP",
      "outputs": [
        {
          "internalType": "uint256",
          "name": "",
          "type": "uint256"
        }
      ],
      "stateMutability": "view",
      "type": "function"
    },
    {
      "inputs": [
        {
          "internalType": "address",
          "name": "chairperson",
          "type": "address"
        },
        {
          "internalType": "uint256[]",
          "name": "candidatesId",
          "type": "uint256[]"
        },
        {
          "internalType": "uint256",
          "name": "startTime",
          "type": "uint256"
        },
        {
          "internalType": "uint256",
          "name": "endTime",
          "type": "uint256"
        }
      ],
      "name": "createSession",
      "outputs": [],
      "stateMutability": "nonpayable",
      "type": "function"
    },
    {
      "inputs": [
        {
          "internalType": "uint256",
          "name": "sessionId",
          "type": "uint256"
        },
        {
          "internalType": "address",
          "name": "to",
          "type": "address"
        }
      ],
      "name": "delegate",
      "outputs": [],
      "stateMutability": "nonpayable",
      "type": "function"
    },
    {
      "inputs": [
        {
          "internalType": "uint256",
          "name": "sessionId",
          "type": "uint256"
        }
      ],
      "name": "getCandidatesFromSession",
      "outputs": [
        {
          "components": [
            {
              "internalType": "uint256",
              "name": "id",
              "type": "uint256"
            },
            {
              "internalType": "uint256",
              "name": "voteCount",
              "type": "uint256"
            }
          ],
          "internalType": "struct Ballot.Candidate[]",
          "name": "",
          "type": "tuple[]"
        }
      ],
      "stateMutability": "view",
      "type": "function"
    },
    {
      "inputs": [
        {
          "internalType": "uint256",
          "name": "sessionId",
          "type": "uint256"
        }
      ],
      "name": "getSessionStatus",
      "outputs": [
        {
          "internalType": "enum Ballot.Status",
          "name": "",
          "type": "uint8"
        }
      ],
      "stateMutability": "view",
      "type": "function"
    },
    {
      "inputs": [
        {
          "internalType": "uint256",
          "name": "sessionId",
          "type": "uint256"
        },
        {
          "internalType": "address",
          "name": "voterAddress",
          "type": "address"
        }
      ],
      "name": "getVoterFromSession",
      "outputs": [
        {
          "components": [
            {
              "internalType": "bool",
              "name": "isVoted",
              "type": "bool"
            },
            {
              "internalType": "address",
              "name": "delegated",
              "type": "address"
            },
            {
              "internalType": "uint256",
              "name": "weight",
              "type": "uint256"
            },
            {
              "internalType": "uint256",
              "name": "candidateId",
              "type": "uint256"
            }
          ],
          "internalType": "struct Ballot.Voter",
          "name": "",
          "type": "tuple"
        }
      ],
      "stateMutability": "view",
      "type": "function"
    },
    {
      "inputs": [
        {
          "internalType": "uint256",
          "name": "sessionId",
          "type": "uint256"
        },
        {
          "internalType": "address[]",
          "name": "voters",
          "type": "address[]"
        }
      ],
      "name": "giveRightToVote",
      "outputs": [],
      "stateMutability": "nonpayable",
      "type": "function"
    },
    {
      "inputs": [],
      "name": "lastSessionId",
      "outputs": [
        {
          "internalType": "uint256",
          "name": "",
          "type": "uint256"
        }
      ],
      "stateMutability": "view",
      "type": "function"
    },
    {
      "inputs": [
        {
          "internalType": "uint256",
          "name": "",
          "type": "uint256"
        }
      ],
      "name": "sessions",
      "outputs": [
        {
          "internalType": "address",
          "name": "chairperson",
          "type": "address"
        },
        {
          "internalType": "uint256",
          "name": "startTime",
          "type": "uint256"
        },
        {
          "internalType": "uint256",
          "name": "endTime",
          "type": "uint256"
        }
      ],
      "stateMutability": "view",
      "type": "function"
    },
    {
      "inputs": [
        {
          "internalType": "uint256",
          "name": "sessionId",
          "type": "uint256"
        },
        {
          "internalType": "uint256",
          "name": "candidateId",
          "type": "uint256"
        }
      ],
      "name": "vote",
      "outputs": [],
      "stateMutability": "nonpayable",
      "type": "function"
    },
    {
      "inputs": [
        {
          "internalType": "uint256",
          "name": "sessionId",
          "type": "uint256"
        }
      ],
      "name": "winningCandidate",
      "outputs": [
        {
          "components": [
            {
              "internalType": "uint256",
              "name": "id",
              "type": "uint256"
            },
            {
              "internalType": "uint256",
              "name": "voteCount",
              "type": "uint256"
            }
          ],
          "internalType": "struct Ballot.Candidate",
          "name": "",
          "type": "tuple"
        }
      ],
      "stateMutability": "view",
      "type": "function"
    }
  ],
  "bytecode": "0x608060405234801561001057600080fd5b50612581806100206000396000f3fe608060405234801561001057600080fd5b50600436106100a95760003560e01c806345939b8b1161007157806345939b8b1461016657806383c4b7a314610182578063887caf5f146101b457806388b364f8146101e4578063b384abef14610200578063b82e1bb21461021c576100a9565b8063081ebe77146100ae57806308bbb824146100cc57806310346602146100e8578063399e44a214610118578063421653f714610148575b600080fd5b6100b661024c565b6040516100c391906116f0565b60405180910390f35b6100e660048036038101906100e191906117a9565b610252565b005b61010260048036038101906100fd91906117e9565b6107c8565b60405161010f9190611903565b60405180910390f35b610132600480360381019061012d91906117a9565b6108a5565b60405161013f91906119a4565b60405180910390f35b6101506109ec565b60405161015d91906116f0565b60405180910390f35b610180600480360381019061017b9190611b18565b6109f2565b005b61019c600480360381019061019791906117e9565b610d6c565b6040516101ab93929190611b83565b60405180910390f35b6101ce60048036038101906101c991906117e9565b610db6565b6040516101db9190611c31565b60405180910390f35b6101fe60048036038101906101f99190611d0f565b610e5a565b005b61021a60048036038101906102159190611d92565b6111cf565b005b610236600480360381019061023191906117e9565b61140f565b6040516102439190611e01565b60405180910390f35b61271081565b816000548111158015610266575060008114155b6102a5576040517f08c379a000000000000000000000000000000000000000000000000000000000815260040161029c90611e79565b60405180910390fd5b82600160006102b383610db6565b90508060028111156102c8576102c7611bba565b5b8260028111156102db576102da611bba565b5b1461031b576040517f08c379a000000000000000000000000000000000000000000000000000000000815260040161031290611ee5565b60405180910390fd5b846000813b905060008161ffff1614610369576040517f08c379a000000000000000000000000000000000000000000000000000000000815260040161036090611f51565b60405180910390fd5b6000600160008a8152602001908152602001600020905060008160040160003373ffffffffffffffffffffffffffffffffffffffff1673ffffffffffffffffffffffffffffffffffffffff168152602001908152602001600020905060008160010154141561040d576040517f08c379a000000000000000000000000000000000000000000000000000000000815260040161040490611fbd565b60405180910390fd5b8060000160009054906101000a900460ff161561045f576040517f08c379a000000000000000000000000000000000000000000000000000000000815260040161045690612029565b60405180910390fd5b3373ffffffffffffffffffffffffffffffffffffffff168973ffffffffffffffffffffffffffffffffffffffff1614156104ce576040517f08c379a00000000000000000000000000000000000000000000000000000000081526004016104c590612095565b60405180910390fd5b5b600073ffffffffffffffffffffffffffffffffffffffff168260040160008b73ffffffffffffffffffffffffffffffffffffffff1673ffffffffffffffffffffffffffffffffffffffff16815260200190815260200160002060000160019054906101000a900473ffffffffffffffffffffffffffffffffffffffff1673ffffffffffffffffffffffffffffffffffffffff1614610642578160040160008a73ffffffffffffffffffffffffffffffffffffffff1673ffffffffffffffffffffffffffffffffffffffff16815260200190815260200160002060000160019054906101000a900473ffffffffffffffffffffffffffffffffffffffff1698503373ffffffffffffffffffffffffffffffffffffffff168973ffffffffffffffffffffffffffffffffffffffff16141561063d576040517f08c379a000000000000000000000000000000000000000000000000000000000815260040161063490612101565b60405180910390fd5b6104cf565b60008260040160008b73ffffffffffffffffffffffffffffffffffffffff1673ffffffffffffffffffffffffffffffffffffffff16815260200190815260200160002090506001816001015410156106cf576040517f08c379a00000000000000000000000000000000000000000000000000000000081526004016106c690611fbd565b60405180910390fd5b60018260000160006101000a81548160ff021916908315150217905550898260000160016101000a81548173ffffffffffffffffffffffffffffffffffffffff021916908373ffffffffffffffffffffffffffffffffffffffff1602179055508060000160009054906101000a900460ff161561079c5760006107568c83600201546115d4565b9050826001015484600301828154811061077357610772612121565b5b90600052602060002090600202016001016000828254610793919061217f565b92505081905550505b81600101548160010160008282546107b4919061217f565b925050819055505050505050505050505050565b60608160005481111580156107de575060008114155b61081d576040517f08c379a000000000000000000000000000000000000000000000000000000000815260040161081490611e79565b60405180910390fd5b60016000848152602001908152602001600020600301805480602002602001604051908101604052809291908181526020016000905b8282101561089957838290600052602060002090600202016040518060400160405290816000820154815260200160018201548152505081526020019060010190610853565b50505050915050919050565b6108ad61167d565b8260005481111580156108c1575060008114155b610900576040517f08c379a00000000000000000000000000000000000000000000000000000000081526004016108f790611e79565b60405180910390fd5b6001600085815260200190815260200160002060040160008473ffffffffffffffffffffffffffffffffffffffff1673ffffffffffffffffffffffffffffffffffffffff1681526020019081526020016000206040518060800160405290816000820160009054906101000a900460ff161515151581526020016000820160019054906101000a900473ffffffffffffffffffffffffffffffffffffffff1673ffffffffffffffffffffffffffffffffffffffff1673ffffffffffffffffffffffffffffffffffffffff1681526020016001820154815260200160028201548152505091505092915050565b60005481565b816000548111158015610a06575060008114155b610a45576040517f08c379a0000000000000000000000000000000000000000000000000000000008152600401610a3c90611e79565b60405180910390fd5b82600080610a5283610db6565b9050806002811115610a6757610a66611bba565b5b826002811115610a7a57610a79611bba565b5b14610aba576040517f08c379a0000000000000000000000000000000000000000000000000000000008152600401610ab190611ee5565b60405180910390fd5b856001600082815260200190815260200160002060000160009054906101000a900473ffffffffffffffffffffffffffffffffffffffff1673ffffffffffffffffffffffffffffffffffffffff163373ffffffffffffffffffffffffffffffffffffffff1614610b5f576040517f08c379a0000000000000000000000000000000000000000000000000000000008152600401610b5690612221565b60405180910390fd5b8560005b8151811015610bec57600080838381518110610b8257610b81612121565b5b60200260200101519050803b915060008261ffff1614610bd7576040517f08c379a0000000000000000000000000000000000000000000000000000000008152600401610bce90611f51565b60405180910390fd5b50508080610be490612241565b915050610b63565b5061271087511115610c33576040517f08c379a0000000000000000000000000000000000000000000000000000000008152600401610c2a906122d6565b60405180910390fd5b6000600160008a8152602001908152602001600020905060005b88518161ffff161015610d60576000898261ffff1681518110610c7357610c72612121565b5b6020026020010151905060008360040160008373ffffffffffffffffffffffffffffffffffffffff1673ffffffffffffffffffffffffffffffffffffffff1681526020019081526020016000206001015414610d04576040517f08c379a0000000000000000000000000000000000000000000000000000000008152600401610cfb90612342565b60405180910390fd5b60018360040160008373ffffffffffffffffffffffffffffffffffffffff1673ffffffffffffffffffffffffffffffffffffffff168152602001908152602001600020600101819055505080610d5990612370565b9050610c4d565b50505050505050505050565b60016020528060005260406000206000915090508060000160009054906101000a900473ffffffffffffffffffffffffffffffffffffffff16908060010154908060020154905083565b6000816000548111158015610dcc575060008114155b610e0b576040517f08c379a0000000000000000000000000000000000000000000000000000000008152600401610e0290611e79565b60405180910390fd5b60006001600085815260200190815260200160002090508060010154421015610e38576000925050610e54565b8060020154421115610e4e576002925050610e54565b60019250505b50919050565b836000813b905060008161ffff1614610ea8576040517f08c379a0000000000000000000000000000000000000000000000000000000008152600401610e9f90611f51565b60405180910390fd5b600073ffffffffffffffffffffffffffffffffffffffff168673ffffffffffffffffffffffffffffffffffffffff161415610f18576040517f08c379a0000000000000000000000000000000000000000000000000000000008152600401610f0f90612221565b60405180910390fd5b6000855111610f5c576040517f08c379a0000000000000000000000000000000000000000000000000000000008152600401610f53906123e7565b60405180910390fd5b6103e885511115610fa2576040517f08c379a0000000000000000000000000000000000000000000000000000000008152600401610f9990612453565b60405180910390fd5b4284118015610fb057508383115b610fef576040517f08c379a0000000000000000000000000000000000000000000000000000000008152600401610fe6906124bf565b60405180910390fd5b60008081548092919061100190612241565b9190505550600060016000805481526020019081526020016000209050868160000160006101000a81548173ffffffffffffffffffffffffffffffffffffffff021916908373ffffffffffffffffffffffffffffffffffffffff1602179055508481600101819055508381600201819055508060030160405180604001604052806000815260200160008152509080600181540180825580915050600190039060005260206000209060020201600090919091909150600082015181600001556020820151816001015550506000600190505b865181116111c55760008782815181106110f1576110f0612121565b5b602002602001015111611139576040517f08c379a00000000000000000000000000000000000000000000000000000000081526004016111309061252b565b60405180910390fd5b6000604051806040016040528089848151811061115957611158612121565b5b602002602001015181526020016000815250905082600301819080600181540180825580915050600190039060005260206000209060020201600090919091909150600082015181600001556020820151816001015550505080806111bd90612241565b9150506110d4565b5050505050505050565b8160005481111580156111e3575060008114155b611222576040517f08c379a000000000000000000000000000000000000000000000000000000000815260040161121990611e79565b60405180910390fd5b826001600061123083610db6565b905080600281111561124557611244611bba565b5b82600281111561125857611257611bba565b5b14611298576040517f08c379a000000000000000000000000000000000000000000000000000000000815260040161128f90611ee5565b60405180910390fd5b600060016000888152602001908152602001600020905060008160040160003373ffffffffffffffffffffffffffffffffffffffff1673ffffffffffffffffffffffffffffffffffffffff168152602001908152602001600020905060008160010154141561133c576040517f08c379a000000000000000000000000000000000000000000000000000000000815260040161133390611fbd565b60405180910390fd5b8060000160009054906101000a900460ff161561138e576040517f08c379a000000000000000000000000000000000000000000000000000000000815260040161138590612029565b60405180910390fd5b60018160000160006101000a81548160ff02191690831515021790555086816002018190555060006113c089896115d4565b905081600101548360030182815481106113dd576113dc612121565b5b906000526020600020906002020160010160008282546113fd919061217f565b92505081905550505050505050505050565b6114176116bd565b81600054811115801561142b575060008114155b61146a576040517f08c379a000000000000000000000000000000000000000000000000000000000815260040161146190611e79565b60405180910390fd5b826002600061147883610db6565b905080600281111561148d5761148c611bba565b5b8260028111156114a05761149f611bba565b5b146114e0576040517f08c379a00000000000000000000000000000000000000000000000000000000081526004016114d790611ee5565b60405180910390fd5b60006001600088815260200190815260200160002090506000805b82600301805490508161ffff1610156115835782600301828154811061152457611523612121565b5b906000526020600020906002020160010154836003018261ffff16815481106115505761154f612121565b5b9060005260206000209060020201600101541115611570578061ffff1691505b808061157b90612370565b9150506114fb565b5081600301818154811061159a57611599612121565b5b9060005260206000209060020201604051806040016040529081600082015481526020016001820154815250509650505050505050919050565b60008060016000858152602001908152602001600020905060005b816003018054905081101561167057600082600301828154811061161657611615612121565b5b9060005260206000209060020201604051806040016040529081600082015481526020016001820154815250509050848160000151141561165c57819350505050611677565b50808061166890612241565b9150506115ef565b5060009150505b92915050565b6040518060800160405280600015158152602001600073ffffffffffffffffffffffffffffffffffffffff16815260200160008152602001600081525090565b604051806040016040528060008152602001600081525090565b6000819050919050565b6116ea816116d7565b82525050565b600060208201905061170560008301846116e1565b92915050565b6000604051905090565b600080fd5b600080fd5b611728816116d7565b811461173357600080fd5b50565b6000813590506117458161171f565b92915050565b600073ffffffffffffffffffffffffffffffffffffffff82169050919050565b60006117768261174b565b9050919050565b6117868161176b565b811461179157600080fd5b50565b6000813590506117a38161177d565b92915050565b600080604083850312156117c0576117bf611715565b5b60006117ce85828601611736565b92505060206117df85828601611794565b9150509250929050565b6000602082840312156117ff576117fe611715565b5b600061180d84828501611736565b91505092915050565b600081519050919050565b600082825260208201905092915050565b6000819050602082019050919050565b61184b816116d7565b82525050565b6040820160008201516118676000850182611842565b50602082015161187a6020850182611842565b50505050565b600061188c8383611851565b60408301905092915050565b6000602082019050919050565b60006118b082611816565b6118ba8185611821565b93506118c583611832565b8060005b838110156118f65781516118dd8882611880565b97506118e883611898565b9250506001810190506118c9565b5085935050505092915050565b6000602082019050818103600083015261191d81846118a5565b905092915050565b60008115159050919050565b61193a81611925565b82525050565b6119498161176b565b82525050565b6080820160008201516119656000850182611931565b5060208201516119786020850182611940565b50604082015161198b6040850182611842565b50606082015161199e6060850182611842565b50505050565b60006080820190506119b9600083018461194f565b92915050565b600080fd5b6000601f19601f8301169050919050565b7f4e487b7100000000000000000000000000000000000000000000000000000000600052604160045260246000fd5b611a0d826119c4565b810181811067ffffffffffffffff82111715611a2c57611a2b6119d5565b5b80604052505050565b6000611a3f61170b565b9050611a4b8282611a04565b919050565b600067ffffffffffffffff821115611a6b57611a6a6119d5565b5b602082029050602081019050919050565b600080fd5b6000611a94611a8f84611a50565b611a35565b90508083825260208201905060208402830185811115611ab757611ab6611a7c565b5b835b81811015611ae05780611acc8882611794565b845260208401935050602081019050611ab9565b5050509392505050565b600082601f830112611aff57611afe6119bf565b5b8135611b0f848260208601611a81565b91505092915050565b60008060408385031215611b2f57611b2e611715565b5b6000611b3d85828601611736565b925050602083013567ffffffffffffffff811115611b5e57611b5d61171a565b5b611b6a85828601611aea565b9150509250929050565b611b7d8161176b565b82525050565b6000606082019050611b986000830186611b74565b611ba560208301856116e1565b611bb260408301846116e1565b949350505050565b7f4e487b7100000000000000000000000000000000000000000000000000000000600052602160045260246000fd5b60038110611bfa57611bf9611bba565b5b50565b6000819050611c0b82611be9565b919050565b6000611c1b82611bfd565b9050919050565b611c2b81611c10565b82525050565b6000602082019050611c466000830184611c22565b92915050565b600067ffffffffffffffff821115611c6757611c666119d5565b5b602082029050602081019050919050565b6000611c8b611c8684611c4c565b611a35565b90508083825260208201905060208402830185811115611cae57611cad611a7c565b5b835b81811015611cd75780611cc38882611736565b845260208401935050602081019050611cb0565b5050509392505050565b600082601f830112611cf657611cf56119bf565b5b8135611d06848260208601611c78565b91505092915050565b60008060008060808587031215611d2957611d28611715565b5b6000611d3787828801611794565b945050602085013567ffffffffffffffff811115611d5857611d5761171a565b5b611d6487828801611ce1565b9350506040611d7587828801611736565b9250506060611d8687828801611736565b91505092959194509250565b60008060408385031215611da957611da8611715565b5b6000611db785828601611736565b9250506020611dc885828601611736565b9150509250929050565b604082016000820151611de86000850182611842565b506020820151611dfb6020850182611842565b50505050565b6000604082019050611e166000830184611dd2565b92915050565b600082825260208201905092915050565b7f496e76616c69642053657373696f6e2049440000000000000000000000000000600082015250565b6000611e63601283611e1c565b9150611e6e82611e2d565b602082019050919050565b60006020820190508181036000830152611e9281611e56565b9050919050565b7f496e76616c696420737461747573000000000000000000000000000000000000600082015250565b6000611ecf600e83611e1c565b9150611eda82611e99565b602082019050919050565b60006020820190508181036000830152611efe81611ec2565b9050919050565b7f436f6e7472616374206164647265737320697320646973616c6c6f7765640000600082015250565b6000611f3b601e83611e1c565b9150611f4682611f05565b602082019050919050565b60006020820190508181036000830152611f6a81611f2e565b9050919050565b7f4e6f20726967687420746f20766f746500000000000000000000000000000000600082015250565b6000611fa7601083611e1c565b9150611fb282611f71565b602082019050919050565b60006020820190508181036000830152611fd681611f9a565b9050919050565b7f416c726561647920766f74656400000000000000000000000000000000000000600082015250565b6000612013600d83611e1c565b915061201e82611fdd565b602082019050919050565b6000602082019050818103600083015261204281612006565b9050919050565b7f4e6f7420616c6c6f7765642073656c662d64656c65676174696f6e0000000000600082015250565b600061207f601b83611e1c565b915061208a82612049565b602082019050919050565b600060208201905081810360008301526120ae81612072565b9050919050565b7f466f756e64206c6f6f7020696e2064656c65676174696f6e0000000000000000600082015250565b60006120eb601883611e1c565b91506120f6826120b5565b602082019050919050565b6000602082019050818103600083015261211a816120de565b9050919050565b7f4e487b7100000000000000000000000000000000000000000000000000000000600052603260045260246000fd5b7f4e487b7100000000000000000000000000000000000000000000000000000000600052601160045260246000fd5b600061218a826116d7565b9150612195836116d7565b9250827fffffffffffffffffffffffffffffffffffffffffffffffffffffffffffffffff038211156121ca576121c9612150565b5b828201905092915050565b7f496e76616c6964206368616972706572736f6e00000000000000000000000000600082015250565b600061220b601383611e1c565b9150612216826121d5565b602082019050919050565b6000602082019050818103600083015261223a816121fe565b9050919050565b600061224c826116d7565b91507fffffffffffffffffffffffffffffffffffffffffffffffffffffffffffffffff82141561227f5761227e612150565b5b600182019050919050565b7f566f7465727320636f756e7420697320746f6f20626967000000000000000000600082015250565b60006122c0601783611e1c565b91506122cb8261228a565b602082019050919050565b600060208201905081810360008301526122ef816122b3565b9050919050565b7f416c726561647920686164207269676874000000000000000000000000000000600082015250565b600061232c601183611e1c565b9150612337826122f6565b602082019050919050565b6000602082019050818103600083015261235b8161231f565b9050919050565b600061ffff82169050919050565b600061237b82612362565b915061ffff8214156123905761238f612150565b5b600182019050919050565b7f4e6f206f6e6520746f20766f7465000000000000000000000000000000000000600082015250565b60006123d1600e83611e1c565b91506123dc8261239b565b602082019050919050565b60006020820190508181036000830152612400816123c4565b9050919050565b7f45786565646564206d6178206f662063616e6469646174657300000000000000600082015250565b600061243d601983611e1c565b915061244882612407565b602082019050919050565b6000602082019050818103600083015261246c81612430565b9050919050565b7f496e76616c69642073657373696f6e2074696d65000000000000000000000000600082015250565b60006124a9601483611e1c565b91506124b482612473565b602082019050919050565b600060208201905081810360008301526124d88161249c565b9050919050565b7f496e76616c69642063616e646964617465204944000000000000000000000000600082015250565b6000612515601483611e1c565b9150612520826124df565b602082019050919050565b6000602082019050818103600083015261254481612508565b905091905056fea264697066735822122003a0535582581e7dd6b941f12cbf5a457f97d2d2b3c72d165eb5d657d7d7811b64736f6c63430008090033",
  "linkReferences": {},
  "deployedLinkReferences": {}
}