{
  "_format": "hh-sol-artifact-1",
  "contractName": "Ballot",
  "sourceName": "contracts/Ballot.sol",
  "abi": [
    {
      "inputs": [],
      "name": "MAX_LOOP",
      "outputs": [
        {
          "internalType": "uint256",
          "name": "",
          "type": "uint256"
        }
      ],
      "stateMutability": "view",
      "type": "function"
    },
    {
      "inputs": [
        {
          "internalType": "uint256",
          "name": "sessionId",
          "type": "uint256"
        },
        {
          "internalType": "uint256",
          "name": "candidateId",
          "type": "uint256"
        }
      ],
      "name": "addCandidate",
      "outputs": [],
      "stateMutability": "nonpayable",
      "type": "function"
    },
    {
      "inputs": [
        {
          "internalType": "address",
          "name": "chairperson",
          "type": "address"
        },
        {
          "internalType": "uint256",
          "name": "startTime",
          "type": "uint256"
        },
        {
          "internalType": "uint256",
          "name": "endTime",
          "type": "uint256"
        }
      ],
      "name": "createSession",
      "outputs": [],
      "stateMutability": "nonpayable",
      "type": "function"
    },
    {
      "inputs": [
        {
          "internalType": "uint256",
          "name": "sessionId",
          "type": "uint256"
        },
        {
          "internalType": "address",
          "name": "to",
          "type": "address"
        }
      ],
      "name": "delegate",
      "outputs": [],
      "stateMutability": "nonpayable",
      "type": "function"
    },
    {
      "inputs": [
        {
          "internalType": "uint256",
          "name": "sessionId",
          "type": "uint256"
        }
      ],
      "name": "getCandidatesFromSession",
      "outputs": [
        {
          "components": [
            {
              "internalType": "uint256",
              "name": "id",
              "type": "uint256"
            },
            {
              "internalType": "uint256",
              "name": "voteCount",
              "type": "uint256"
            }
          ],
          "internalType": "struct Ballot.Candidate[]",
          "name": "",
          "type": "tuple[]"
        }
      ],
      "stateMutability": "view",
      "type": "function"
    },
    {
      "inputs": [
        {
          "internalType": "uint256",
          "name": "sessionId",
          "type": "uint256"
        }
      ],
      "name": "getSessionStatus",
      "outputs": [
        {
          "internalType": "enum Ballot.Status",
          "name": "",
          "type": "uint8"
        }
      ],
      "stateMutability": "view",
      "type": "function"
    },
    {
      "inputs": [
        {
          "internalType": "uint256",
          "name": "sessionId",
          "type": "uint256"
        },
        {
          "internalType": "address",
          "name": "voterAddress",
          "type": "address"
        }
      ],
      "name": "getVoterFromSession",
      "outputs": [
        {
          "components": [
            {
              "internalType": "bool",
              "name": "isVoted",
              "type": "bool"
            },
            {
              "internalType": "address",
              "name": "delegated",
              "type": "address"
            },
            {
              "internalType": "uint256",
              "name": "weight",
              "type": "uint256"
            },
            {
              "internalType": "uint256",
              "name": "candidateId",
              "type": "uint256"
            }
          ],
          "internalType": "struct Ballot.Voter",
          "name": "",
          "type": "tuple"
        }
      ],
      "stateMutability": "view",
      "type": "function"
    },
    {
      "inputs": [
        {
          "internalType": "uint256",
          "name": "sessionId",
          "type": "uint256"
        },
        {
          "internalType": "address[]",
          "name": "voters",
          "type": "address[]"
        }
      ],
      "name": "giveRightToVote",
      "outputs": [],
      "stateMutability": "nonpayable",
      "type": "function"
    },
    {
      "inputs": [],
      "name": "lastSessionId",
      "outputs": [
        {
          "internalType": "uint256",
          "name": "",
          "type": "uint256"
        }
      ],
      "stateMutability": "view",
      "type": "function"
    },
    {
      "inputs": [
        {
          "internalType": "uint256",
          "name": "",
          "type": "uint256"
        }
      ],
      "name": "sessions",
      "outputs": [
        {
          "internalType": "address",
          "name": "chairperson",
          "type": "address"
        },
        {
          "internalType": "uint256",
          "name": "startTime",
          "type": "uint256"
        },
        {
          "internalType": "uint256",
          "name": "endTime",
          "type": "uint256"
        }
      ],
      "stateMutability": "view",
      "type": "function"
    },
    {
      "inputs": [
        {
          "internalType": "uint256",
          "name": "sessionId",
          "type": "uint256"
        },
        {
          "internalType": "uint256",
          "name": "candidateId",
          "type": "uint256"
        }
      ],
      "name": "vote",
      "outputs": [],
      "stateMutability": "nonpayable",
      "type": "function"
    },
    {
      "inputs": [
        {
          "internalType": "uint256",
          "name": "sessionId",
          "type": "uint256"
        }
      ],
      "name": "winningCandidate",
      "outputs": [
        {
          "components": [
            {
              "internalType": "uint256",
              "name": "id",
              "type": "uint256"
            },
            {
              "internalType": "uint256",
              "name": "voteCount",
              "type": "uint256"
            }
          ],
          "internalType": "struct Ballot.Candidate",
          "name": "",
          "type": "tuple"
        }
      ],
      "stateMutability": "view",
      "type": "function"
    }
  ],
  "bytecode": "0x608060405234801561001057600080fd5b50612483806100206000396000f3fe608060405234801561001057600080fd5b50600436106100b45760003560e01c806383c4b7a31161007157806383c4b7a31461018d578063887caf5f146101bf578063b384abef146101ef578063b82e1bb21461020b578063de68c3831461023b578063dff0a88014610257576100b4565b8063081ebe77146100b957806308bbb824146100d757806310346602146100f3578063399e44a214610123578063421653f71461015357806345939b8b14610171575b600080fd5b6100c1610273565b6040516100ce91906117bd565b60405180910390f35b6100f160048036038101906100ec9190611876565b610279565b005b61010d600480360381019061010891906118b6565b6107ef565b60405161011a91906119d0565b60405180910390f35b61013d60048036038101906101389190611876565b6108cc565b60405161014a9190611a71565b60405180910390f35b61015b610a13565b60405161016891906117bd565b60405180910390f35b61018b60048036038101906101869190611be5565b610a19565b005b6101a760048036038101906101a291906118b6565b610d93565b6040516101b693929190611c50565b60405180910390f35b6101d960048036038101906101d491906118b6565b610ddd565b6040516101e69190611cfe565b60405180910390f35b61020960048036038101906102049190611d19565b610e81565b005b610225600480360381019061022091906118b6565b6110c1565b6040516102329190611d88565b60405180910390f35b61025560048036038101906102509190611da3565b611286565b005b610271600480360381019061026c9190611d19565b611477565b005b61271081565b81600054811115801561028d575060008114155b6102cc576040517f08c379a00000000000000000000000000000000000000000000000000000000081526004016102c390611e53565b60405180910390fd5b82600160006102da83610ddd565b90508060028111156102ef576102ee611c87565b5b82600281111561030257610301611c87565b5b14610342576040517f08c379a000000000000000000000000000000000000000000000000000000000815260040161033990611ebf565b60405180910390fd5b846000813b905060008161ffff1614610390576040517f08c379a000000000000000000000000000000000000000000000000000000000815260040161038790611f2b565b60405180910390fd5b6000600160008a8152602001908152602001600020905060008160040160003373ffffffffffffffffffffffffffffffffffffffff1673ffffffffffffffffffffffffffffffffffffffff1681526020019081526020016000209050600081600101541415610434576040517f08c379a000000000000000000000000000000000000000000000000000000000815260040161042b90611f97565b60405180910390fd5b8060000160009054906101000a900460ff1615610486576040517f08c379a000000000000000000000000000000000000000000000000000000000815260040161047d90612003565b60405180910390fd5b3373ffffffffffffffffffffffffffffffffffffffff168973ffffffffffffffffffffffffffffffffffffffff1614156104f5576040517f08c379a00000000000000000000000000000000000000000000000000000000081526004016104ec9061206f565b60405180910390fd5b5b600073ffffffffffffffffffffffffffffffffffffffff168260040160008b73ffffffffffffffffffffffffffffffffffffffff1673ffffffffffffffffffffffffffffffffffffffff16815260200190815260200160002060000160019054906101000a900473ffffffffffffffffffffffffffffffffffffffff1673ffffffffffffffffffffffffffffffffffffffff1614610669578160040160008a73ffffffffffffffffffffffffffffffffffffffff1673ffffffffffffffffffffffffffffffffffffffff16815260200190815260200160002060000160019054906101000a900473ffffffffffffffffffffffffffffffffffffffff1698503373ffffffffffffffffffffffffffffffffffffffff168973ffffffffffffffffffffffffffffffffffffffff161415610664576040517f08c379a000000000000000000000000000000000000000000000000000000000815260040161065b906120db565b60405180910390fd5b6104f6565b60008260040160008b73ffffffffffffffffffffffffffffffffffffffff1673ffffffffffffffffffffffffffffffffffffffff16815260200190815260200160002090506001816001015410156106f6576040517f08c379a00000000000000000000000000000000000000000000000000000000081526004016106ed90611f97565b60405180910390fd5b60018260000160006101000a81548160ff021916908315150217905550898260000160016101000a81548173ffffffffffffffffffffffffffffffffffffffff021916908373ffffffffffffffffffffffffffffffffffffffff1602179055508060000160009054906101000a900460ff16156107c357600061077d8c83600201546116a1565b9050826001015484600301828154811061079a576107996120fb565b5b906000526020600020906002020160010160008282546107ba9190612159565b92505081905550505b81600101548160010160008282546107db9190612159565b925050819055505050505050505050505050565b6060816000548111158015610805575060008114155b610844576040517f08c379a000000000000000000000000000000000000000000000000000000000815260040161083b90611e53565b60405180910390fd5b60016000848152602001908152602001600020600301805480602002602001604051908101604052809291908181526020016000905b828210156108c05783829060005260206000209060020201604051806040016040529081600082015481526020016001820154815250508152602001906001019061087a565b50505050915050919050565b6108d461174a565b8260005481111580156108e8575060008114155b610927576040517f08c379a000000000000000000000000000000000000000000000000000000000815260040161091e90611e53565b60405180910390fd5b6001600085815260200190815260200160002060040160008473ffffffffffffffffffffffffffffffffffffffff1673ffffffffffffffffffffffffffffffffffffffff1681526020019081526020016000206040518060800160405290816000820160009054906101000a900460ff161515151581526020016000820160019054906101000a900473ffffffffffffffffffffffffffffffffffffffff1673ffffffffffffffffffffffffffffffffffffffff1673ffffffffffffffffffffffffffffffffffffffff1681526020016001820154815260200160028201548152505091505092915050565b60005481565b816000548111158015610a2d575060008114155b610a6c576040517f08c379a0000000000000000000000000000000000000000000000000000000008152600401610a6390611e53565b60405180910390fd5b82600080610a7983610ddd565b9050806002811115610a8e57610a8d611c87565b5b826002811115610aa157610aa0611c87565b5b14610ae1576040517f08c379a0000000000000000000000000000000000000000000000000000000008152600401610ad890611ebf565b60405180910390fd5b856001600082815260200190815260200160002060000160009054906101000a900473ffffffffffffffffffffffffffffffffffffffff1673ffffffffffffffffffffffffffffffffffffffff163373ffffffffffffffffffffffffffffffffffffffff1614610b86576040517f08c379a0000000000000000000000000000000000000000000000000000000008152600401610b7d906121fb565b60405180910390fd5b8560005b8151811015610c1357600080838381518110610ba957610ba86120fb565b5b60200260200101519050803b915060008261ffff1614610bfe576040517f08c379a0000000000000000000000000000000000000000000000000000000008152600401610bf590611f2b565b60405180910390fd5b50508080610c0b9061221b565b915050610b8a565b5061271087511115610c5a576040517f08c379a0000000000000000000000000000000000000000000000000000000008152600401610c51906122b0565b60405180910390fd5b6000600160008a8152602001908152602001600020905060005b88518161ffff161015610d87576000898261ffff1681518110610c9a57610c996120fb565b5b6020026020010151905060008360040160008373ffffffffffffffffffffffffffffffffffffffff1673ffffffffffffffffffffffffffffffffffffffff1681526020019081526020016000206001015414610d2b576040517f08c379a0000000000000000000000000000000000000000000000000000000008152600401610d229061231c565b60405180910390fd5b60018360040160008373ffffffffffffffffffffffffffffffffffffffff1673ffffffffffffffffffffffffffffffffffffffff168152602001908152602001600020600101819055505080610d809061234a565b9050610c74565b50505050505050505050565b60016020528060005260406000206000915090508060000160009054906101000a900473ffffffffffffffffffffffffffffffffffffffff16908060010154908060020154905083565b6000816000548111158015610df3575060008114155b610e32576040517f08c379a0000000000000000000000000000000000000000000000000000000008152600401610e2990611e53565b60405180910390fd5b60006001600085815260200190815260200160002090508060010154421015610e5f576000925050610e7b565b8060020154421115610e75576002925050610e7b565b60019250505b50919050565b816000548111158015610e95575060008114155b610ed4576040517f08c379a0000000000000000000000000000000000000000000000000000000008152600401610ecb90611e53565b60405180910390fd5b8260016000610ee283610ddd565b9050806002811115610ef757610ef6611c87565b5b826002811115610f0a57610f09611c87565b5b14610f4a576040517f08c379a0000000000000000000000000000000000000000000000000000000008152600401610f4190611ebf565b60405180910390fd5b600060016000888152602001908152602001600020905060008160040160003373ffffffffffffffffffffffffffffffffffffffff1673ffffffffffffffffffffffffffffffffffffffff1681526020019081526020016000209050600081600101541415610fee576040517f08c379a0000000000000000000000000000000000000000000000000000000008152600401610fe590611f97565b60405180910390fd5b8060000160009054906101000a900460ff1615611040576040517f08c379a000000000000000000000000000000000000000000000000000000000815260040161103790612003565b60405180910390fd5b60018160000160006101000a81548160ff021916908315150217905550868160020181905550600061107289896116a1565b9050816001015483600301828154811061108f5761108e6120fb565b5b906000526020600020906002020160010160008282546110af9190612159565b92505081905550505050505050505050565b6110c961178a565b8160005481111580156110dd575060008114155b61111c576040517f08c379a000000000000000000000000000000000000000000000000000000000815260040161111390611e53565b60405180910390fd5b826002600061112a83610ddd565b905080600281111561113f5761113e611c87565b5b82600281111561115257611151611c87565b5b14611192576040517f08c379a000000000000000000000000000000000000000000000000000000000815260040161118990611ebf565b60405180910390fd5b60006001600088815260200190815260200160002090506000805b82600301805490508161ffff161015611235578260030182815481106111d6576111d56120fb565b5b906000526020600020906002020160010154836003018261ffff1681548110611202576112016120fb565b5b9060005260206000209060020201600101541115611222578061ffff1691505b808061122d9061234a565b9150506111ad565b5081600301818154811061124c5761124b6120fb565b5b9060005260206000209060020201604051806040016040529081600082015481526020016001820154815250509650505050505050919050565b826000813b905060008161ffff16146112d4576040517f08c379a00000000000000000000000000000000000000000000000000000000081526004016112cb90611f2b565b60405180910390fd5b600073ffffffffffffffffffffffffffffffffffffffff168573ffffffffffffffffffffffffffffffffffffffff161415611344576040517f08c379a000000000000000000000000000000000000000000000000000000000815260040161133b906121fb565b60405180910390fd5b428411801561135257508383115b611391576040517f08c379a0000000000000000000000000000000000000000000000000000000008152600401611388906123c1565b60405180910390fd5b6000808154809291906113a39061221b565b9190505550600060016000805481526020019081526020016000209050858160000160006101000a81548173ffffffffffffffffffffffffffffffffffffffff021916908373ffffffffffffffffffffffffffffffffffffffff160217905550848160010181905550838160020181905550806003016040518060400160405280600081526020016000815250908060018154018082558091505060019003906000526020600020906002020160009091909190915060008201518160000155602082015181600101555050505050505050565b81600054811115801561148b575060008114155b6114ca576040517f08c379a00000000000000000000000000000000000000000000000000000000081526004016114c190611e53565b60405180910390fd5b826000806114d783610ddd565b90508060028111156114ec576114eb611c87565b5b8260028111156114ff576114fe611c87565b5b1461153f576040517f08c379a000000000000000000000000000000000000000000000000000000000815260040161153690611ebf565b60405180910390fd5b856001600082815260200190815260200160002060000160009054906101000a900473ffffffffffffffffffffffffffffffffffffffff1673ffffffffffffffffffffffffffffffffffffffff163373ffffffffffffffffffffffffffffffffffffffff16146115e4576040517f08c379a00000000000000000000000000000000000000000000000000000000081526004016115db906121fb565b60405180910390fd5b60008611611627576040517f08c379a000000000000000000000000000000000000000000000000000000000815260040161161e9061242d565b60405180910390fd5b600060016000898152602001908152602001600020905080600301604051806040016040528089815260200160008152509080600181540180825580915050600190039060005260206000209060020201600090919091909150600082015181600001556020820151816001015550505050505050505050565b60008060016000858152602001908152602001600020905060005b816003018054905081101561173d5760008260030182815481106116e3576116e26120fb565b5b9060005260206000209060020201604051806040016040529081600082015481526020016001820154815250509050848160000151141561172957819350505050611744565b5080806117359061221b565b9150506116bc565b5060009150505b92915050565b6040518060800160405280600015158152602001600073ffffffffffffffffffffffffffffffffffffffff16815260200160008152602001600081525090565b604051806040016040528060008152602001600081525090565b6000819050919050565b6117b7816117a4565b82525050565b60006020820190506117d260008301846117ae565b92915050565b6000604051905090565b600080fd5b600080fd5b6117f5816117a4565b811461180057600080fd5b50565b600081359050611812816117ec565b92915050565b600073ffffffffffffffffffffffffffffffffffffffff82169050919050565b600061184382611818565b9050919050565b61185381611838565b811461185e57600080fd5b50565b6000813590506118708161184a565b92915050565b6000806040838503121561188d5761188c6117e2565b5b600061189b85828601611803565b92505060206118ac85828601611861565b9150509250929050565b6000602082840312156118cc576118cb6117e2565b5b60006118da84828501611803565b91505092915050565b600081519050919050565b600082825260208201905092915050565b6000819050602082019050919050565b611918816117a4565b82525050565b604082016000820151611934600085018261190f565b506020820151611947602085018261190f565b50505050565b6000611959838361191e565b60408301905092915050565b6000602082019050919050565b600061197d826118e3565b61198781856118ee565b9350611992836118ff565b8060005b838110156119c35781516119aa888261194d565b97506119b583611965565b925050600181019050611996565b5085935050505092915050565b600060208201905081810360008301526119ea8184611972565b905092915050565b60008115159050919050565b611a07816119f2565b82525050565b611a1681611838565b82525050565b608082016000820151611a3260008501826119fe565b506020820151611a456020850182611a0d565b506040820151611a58604085018261190f565b506060820151611a6b606085018261190f565b50505050565b6000608082019050611a866000830184611a1c565b92915050565b600080fd5b6000601f19601f8301169050919050565b7f4e487b7100000000000000000000000000000000000000000000000000000000600052604160045260246000fd5b611ada82611a91565b810181811067ffffffffffffffff82111715611af957611af8611aa2565b5b80604052505050565b6000611b0c6117d8565b9050611b188282611ad1565b919050565b600067ffffffffffffffff821115611b3857611b37611aa2565b5b602082029050602081019050919050565b600080fd5b6000611b61611b5c84611b1d565b611b02565b90508083825260208201905060208402830185811115611b8457611b83611b49565b5b835b81811015611bad5780611b998882611861565b845260208401935050602081019050611b86565b5050509392505050565b600082601f830112611bcc57611bcb611a8c565b5b8135611bdc848260208601611b4e565b91505092915050565b60008060408385031215611bfc57611bfb6117e2565b5b6000611c0a85828601611803565b925050602083013567ffffffffffffffff811115611c2b57611c2a6117e7565b5b611c3785828601611bb7565b9150509250929050565b611c4a81611838565b82525050565b6000606082019050611c656000830186611c41565b611c7260208301856117ae565b611c7f60408301846117ae565b949350505050565b7f4e487b7100000000000000000000000000000000000000000000000000000000600052602160045260246000fd5b60038110611cc757611cc6611c87565b5b50565b6000819050611cd882611cb6565b919050565b6000611ce882611cca565b9050919050565b611cf881611cdd565b82525050565b6000602082019050611d136000830184611cef565b92915050565b60008060408385031215611d3057611d2f6117e2565b5b6000611d3e85828601611803565b9250506020611d4f85828601611803565b9150509250929050565b604082016000820151611d6f600085018261190f565b506020820151611d82602085018261190f565b50505050565b6000604082019050611d9d6000830184611d59565b92915050565b600080600060608486031215611dbc57611dbb6117e2565b5b6000611dca86828701611861565b9350506020611ddb86828701611803565b9250506040611dec86828701611803565b9150509250925092565b600082825260208201905092915050565b7f496e76616c69642053657373696f6e2049440000000000000000000000000000600082015250565b6000611e3d601283611df6565b9150611e4882611e07565b602082019050919050565b60006020820190508181036000830152611e6c81611e30565b9050919050565b7f496e76616c696420737461747573000000000000000000000000000000000000600082015250565b6000611ea9600e83611df6565b9150611eb482611e73565b602082019050919050565b60006020820190508181036000830152611ed881611e9c565b9050919050565b7f436f6e7472616374206164647265737320697320646973616c6c6f7765640000600082015250565b6000611f15601e83611df6565b9150611f2082611edf565b602082019050919050565b60006020820190508181036000830152611f4481611f08565b9050919050565b7f4e6f20726967687420746f20766f746500000000000000000000000000000000600082015250565b6000611f81601083611df6565b9150611f8c82611f4b565b602082019050919050565b60006020820190508181036000830152611fb081611f74565b9050919050565b7f416c726561647920766f74656400000000000000000000000000000000000000600082015250565b6000611fed600d83611df6565b9150611ff882611fb7565b602082019050919050565b6000602082019050818103600083015261201c81611fe0565b9050919050565b7f4e6f7420616c6c6f7765642073656c662d64656c65676174696f6e0000000000600082015250565b6000612059601b83611df6565b915061206482612023565b602082019050919050565b600060208201905081810360008301526120888161204c565b9050919050565b7f466f756e64206c6f6f7020696e2064656c65676174696f6e0000000000000000600082015250565b60006120c5601883611df6565b91506120d08261208f565b602082019050919050565b600060208201905081810360008301526120f4816120b8565b9050919050565b7f4e487b7100000000000000000000000000000000000000000000000000000000600052603260045260246000fd5b7f4e487b7100000000000000000000000000000000000000000000000000000000600052601160045260246000fd5b6000612164826117a4565b915061216f836117a4565b9250827fffffffffffffffffffffffffffffffffffffffffffffffffffffffffffffffff038211156121a4576121a361212a565b5b828201905092915050565b7f496e76616c6964206368616972706572736f6e00000000000000000000000000600082015250565b60006121e5601383611df6565b91506121f0826121af565b602082019050919050565b60006020820190508181036000830152612214816121d8565b9050919050565b6000612226826117a4565b91507fffffffffffffffffffffffffffffffffffffffffffffffffffffffffffffffff8214156122595761225861212a565b5b600182019050919050565b7f566f7465727320636f756e7420697320746f6f20626967000000000000000000600082015250565b600061229a601783611df6565b91506122a582612264565b602082019050919050565b600060208201905081810360008301526122c98161228d565b9050919050565b7f416c726561647920686164207269676874000000000000000000000000000000600082015250565b6000612306601183611df6565b9150612311826122d0565b602082019050919050565b60006020820190508181036000830152612335816122f9565b9050919050565b600061ffff82169050919050565b60006123558261233c565b915061ffff82141561236a5761236961212a565b5b600182019050919050565b7f496e76616c69642073657373696f6e2074696d65000000000000000000000000600082015250565b60006123ab601483611df6565b91506123b682612375565b602082019050919050565b600060208201905081810360008301526123da8161239e565b9050919050565b7f496e76616c69642063616e646964617465206964000000000000000000000000600082015250565b6000612417601483611df6565b9150612422826123e1565b602082019050919050565b600060208201905081810360008301526124468161240a565b905091905056fea26469706673582212204c10ddbd2eefb4c99ee99a08e044ee5240e0274d545e81b72b48bd40819d61c064736f6c63430008090033",
  "linkReferences": {},
  "deployedLinkReferences": {}
}